:02000004000BEF
:10000000FCFF0020950F0B009D0E0B009D0E0B00BA
:100010009D0E0B009D0E0B009D0E0B009D0E0B0008
:100020009D0E0B009D0E0B009D0E0B009D0E0B00F8
:100030009D0E0B009D0E0B009D0E0B009D0E0B00E8
:100040009D0E0B009D0E0B009D0E0B009D0E0B00D8
:100F9400FFF79CFF81B0FFF7ABFFFFF781FF00F085
:100FA400EDFC00F02BF800F0A9FCFFF72DFF0F4932
:100FB400087840F0200008700D4908786FF3C710D6
:100FC400087001210B4801704FF46140FFF758FF8E
:100FD400FFF730FF084C2046FFF772FD04490878FC
:100FE40040F080000870FEE7FEE700BF8A13084067
:0C0FF4008D13084014A40040660000208B
:100DF80081B01CF8019B0BF8019BBBEB0A0FF8D1E3
:040E080001B070477E
:100DBC0081B04FF000094FF0000CBDEB0A0F04DCC2
:100DCC00BDEB0B0F01DBD446EA464BF8049BBBEBA7
:100DDC000A0FFAD1BCEB0A0F05DDE246D9F800B0D8
:0A0DEC000BF1040BF1E701B07047B2
:100E0C0081B0CDF800E040F220010648FFF7EEFE7D
:100E1C004FF0C0010448FFF7E9FEDDF800E001B037
:0C0E2C00704700BF40110840A0110840B2
:100BF80081B0CDF800E0044AC9B2FFF7DFFEDDF8A6
:0C0C080000E001B0704700BF00062000B3
:1009C40081B01446314B984203D8314B984200D33E
:1009D40000E058E02E4BC31A03F01F0303B152E0AA
:1009E400064600F5A0624FF6FF7304EA03031846B7
:1009F400284B04EA03031B0C40F20008CFB2014663
:100A04001846B8F1080F3ED201231BB203FA08F3CB
:100A14001BB21CB207EA0403A34231D101F44053D0
:100A24008BB14FEA8803F5182C686FF4405304EA3D
:100A340003032B604FEA8803F51801F440542B6834
:100A440023432B601CE04FEA8803F5182C68114BF4
:100A540004EA03032B604FEA8803F41823680B436A
:100A640023604FEA8803D5182C686FF0FF0304EA6B
:100A740003032B604FEA8803D418236803432360DD
:100A840008F10108BDE701B0704700BFC01208407B
:080A9400001008400000FFFF04
:100E840081B0CDF800E0002300220321FFF7C0FE6B
:080E9400DDF800E001B0704739
:100C140084B0CDF800E01FFA82FB1FFA83FC0022A7
:100C24008DF80420ADF8081003904A48FFF726FC1D
:100C34000398BDF808109DF80420ADF80410029044
:100C4400FFF742FC0298BDF804100025424C2570C1
:100C54000025424C2570B0F5E13F06D9404CA04236
:100C640003D83F4CB4FBF0F308E0B0F5E13F04D8FF
:100C74004FF4E134B4FBF0F300E00123ADF80410C9
:100C84000290FFF795FC0298BDF8041003F0FF04EE
:100C9400E5B2344C25701C0A04F07F04E5B2324CF2
:100CA4002570B0F5E13F06D92F4C247844F0800537
:100CB4002D4C257005E02C4C247804F07F052A4C3B
:100CC4002570ADF80410FFF7FFFBBDF804100025F4
:100CD400264C25700BE042F00100C0B20EE042F059
:100CE4000200C0B20AE042F00300C0B206E00129EB
:100CF400F1D00229F3D00329F5D0F4E74FEA8C04AC
:100D0400A4B240EA04044FEACB05ADB2E4B22C43EA
:100D1400E4B204F07F05154C25700025144C2570B1
:100D24000025144C2570144D144C2560144D154C9D
:100D34002560154D154C2560154D164C2560164C37
:100D4400247844F00105144C2570DDF800E004B06B
:100D5400704700BF98180B00F0270F4001240F4084
:100D640060E3160000240F4001240F4003240F40C9
:100D740004240F4002240F40FFFFFFFF7C000020EB
:100D8400FFFFFFFF80000020FFFFFFFF8400002023
:0C0D9400FFFFFFFF8800002030270F4009
:1004800081B0CDF800E040F2000A81464FEA8A01CF
:1004900009EB01010968B1F1FF3F12D009F1340104
:1004A0004FEA8A03C91809680A4609EB030109687B
:1004B00008461146FFF776FF0AF1010A1FFA8AFA89
:0A04C000E4E7DDF800E001B070474A
:1003A40082B0CDF800E000F0FF02130902F00F0262
:1003B4001446D8B2FFF778FF012212B2A240ADF87A
:1003C400042000460A469DF8041000F0F9FADDF80E
:0603D40000E002B07047DA
:1002AC0081B027E028484DE028484BE0284849E039
:1002BC00284847E0284845E0284843E0284841E0E2
:1002CC0028483FE028483DE028483BE0284839E0F2
:1002DC00284837E0284835E0284833E0284831E002
:1002EC0028482FE028482DE028482BE0284829E012
:1002FC00284827E00028D5D00128D5D00228D5D011
:10030C000328D5D00428D5D00528D5D00628D5D09B
:10031C000728D5D00828D5D00928D5D00A28D5D07B
:10032C000B28D5D00C28D5D00D28D5D00E28D5D05B
:10033C000F28D5D01028D5D01128D5D01228D5D03B
:10034C001328D5D001B07047001008402010084089
:10035C00401008406010084080100840A010084071
:10036C00C0100840E010084000110840201108405F
:10037C00401108406011084080110840A01108404D
:10038C00C0110840E011084000120840201208403B
:08039C00401208406012084005
:1004CC0081B00448007800F07F010248017001B04F
:0804DC00704700BF03240F402C
:1005B40081B00448007840F080010248017001B025
:0805C400704700BF03240F4043
:100E380081B0CDF800E000210C4801700C49087819
:100E480040F0400008700B4C2046FFF737FEFFF7D4
:100E58005FFE094C2046FFF731FE054908786FF31D
:100E680086100870DDF800E001B07047000000202F
:0C0E78008D130840010000201D00002028
:100AC40083B0CDF800E000218DF804100290FFF708
:100AD400FBFC02989DF804100346C8B21918097863
:100AE40081B1B0F1FF0F0DD20849097801F020015E
:100AF400C9B201B9F8E719180A7805490A70401C07
:100B0400C0B2EBE7DDF800E003B0704705240F4006
:040B140000240F406A
:100B180082B0CDF800E034480190FFF7DFFC33499C
:100B280008786FF300000870304908786FF34100C7
:100B38000870FFF7E1FC019801464FF011000860CA
:100B48000198011D40F201000880019801464FF00C
:100B58000100086001980068012800D0FAE70198B0
:100B680001464FF0090008602049087840F001006C
:100B780008704FF01E0001B4FFF78CFF01B0019818
:100B8800011D40F203000880FFF71CFD1749087893
:100B98006FF300000870019801464FF001000860EB
:100BA80001980068012800D0FAE7019801464FF043
:100BB800110008600198011D40F2010008800198A9
:100BC800811D40F2000008800198011D40F20000DC
:100BD8000880FFF70DFE019801464FF000000860FD
:100BE800DDF800E002B07047002008408513084097
:1004E40081B0CDF800E04FF00301034800F082FB37
:0C04F400DDF800E001B07047A0100840E7
:1005000085B028480490049801464FF01100086017
:1005100004981030001C019040F20000ADF8080073
:10052000BDF80800B0F5007F3ADCBDF808104FF0C8
:10053000040041431C4840180088ADF80C00BDF889
:100540000C101A48814200D12AE0BDF80C10019825
:1005500040180078ADF80A00BDF80C001F2808DC30
:10056000BDF80A0028B11248007840F00101104897
:100570000170BDF80C0080280CD3BDF80C00BF281A
:1005800008D8BDF80A0028B10948007840F00201F7
:1005900007480170BDF80800401CADF80800BFE72F
:1005A00005B070470020084024100B00ADDE0000AD
:0405B0000000002027
:100A9C0082B04FF0000001904FF0000001900299DD
:100AAC004FF00A0041430198884203D20198401C40
:080ABC000190F4E702B070475D
:1005CC0085B0CDF800E07F48049040F20000ADF813
:1005DC000600BDF80600B0F5007F00F3EF807A4806
:1005EC0001787A480170BDF806104FF004004143C1
:1005FC00774840180088ADF80800BDF806104FF099
:10060C000400414372484018801C00788DF80400A7
:10061C00BDF808106F48814200D1CFE0BDF808004A
:10062C00232811D19DF8040000F0800060B1012155
:10063C00664801709DF8040000F080008DF80400FD
:10064C00654C204600F038FABDF8080022280DD180
:10065C009DF8040000F0120040B101215B480170CC
:10066C009DF8040000F012008DF80400BDF808108D
:10067C005A4881420DD19DF8040000F0010040B1B0
:10068C000121524801709DF8040000F001008DF822
:10069C000400BDF808001F2807DC5148007800F062
:1006AC00010010B9012149480170BDF808008028EB
:1006BC000BD3BDF80800BF2807D84948007800F0D4
:1006CC00020010B9012141480170BDF80800B0F5D5
:1006DC00FE7F05D3BDF808104248814200D80DE0DA
:1006EC00BDF80800C02805D3BDF808103E4881426B
:1006FC0000D803E03548007800B959E04FF001000C
:10070C00039000208DF805009DF8050008284FDCAB
:10071C0003999DF80400084018B903984000039011
:10072C0040E00498821DBDF808104FF008004143CA
:10073C009DF80500081880B210804FF0140001B429
:10074C0000F0A6F901B00498011D40F203000880E6
:10075C004FF0140001B400F09BF901B00498011D96
:10076C0040F2070008804FF00A0001B400F090F945
:10077C0001B00498011D40F2030008804FF01400F2
:10078C0001B400F085F901B00498011D40F201009C
:10079C0008804FF00A0001B400F07AF901B0039818
:1007AC00400003909DF80500401C8DF80500ABE758
:1007BC00BDF80600401CADF806000AE7DDF800E0C5
:1007CC0005B0704700200840400000203F0000208A
:1007DC0024100B00ADDE000052000020E3010000ED
:0C07EC0000000020FD010000DF01000003
:1007F80086B0CDF800E067480590059801464FF0AF
:100808001100086005981030001C029040F20000AA
:10081800ADF80C00BDF80C00B0F5007F80F2B58093
:100828005D4801785D480170BDF80C104FF0040078
:1008380041435B4840180088ADF81000BDF80C1023
:100848004FF00400414356484018801C00788DF84A
:100858000400BDF810105348814200D195E0BDF85E
:10086800100023280DD19DF8040000F0800040B14D
:1008780001214A4801709DF8040000F080008DF8BD
:100888000400BDF8100022280DD19DF8040000F0E6
:10089800120040B10121414801709DF8040000F0A8
:1008A80012008DF80400BDF810103F4881420DD1A8
:1008B8009DF8040000F0010040B1012137480170A3
:1008C8009DF8040000F001008DF80400BDF8100048
:1008D8001F2807DC3548007800F0010010B9012115
:1008E8002E480170BDF8100080280BD3BDF8100009
:1008F800BF2807D82D48007800F0020010B9012160
:1009080026480170BDF81010029840180078ADF81C
:100918000E009DF80410BDF80E0008408DF8050083
:10092800BDF81000B0F5FE7F05D3BDF810102048C3
:10093800814200D80DE0BDF81000C02805D3BDF8ED
:1009480010101C48814200D803E01448007800B910
:1009580015E09DF804109DF8050088420FD09DF819
:100968000410BDF80E00884209D0134C204600F050
:10097800A5F8012001B4FFF72DFD01B0F9E7BDF896
:100988000C00401CADF80C0044E7DDF800E006B0B0
:10099800704700BF00200840400000203F000020B2
:1009A80024100B00ADDE0000E30100000000002071
:0C09B800FD010000DF01000041000020F4
:1003DC0084B024480190019802909DF810109DF86B
:1003EC001000401E8DF81000002939D002991E48CB
:1003FC0001EA000050B11D480178C1F3801080F073
:10040C0001021A49087862F386100870019918489D
:10041C0001EA0000039003990398401E039001B178
:10042C00F9E70299104801EA000050B10F48017831
:10043C00C1F3C01080F001020C49087862F3C710B8
:10044C0008700199074801EA00000390039903988A
:10045C00401E039001B1F9E70298401E0290BCE7E0
:10046C0004B07047FFFF0F00010008008D13084017
:04047C00FFFF00007E
:100EF40081B0CDF800E01F4B1F4A204C2048006809
:100F040040F002011E480160012A08D0032A06D0DD
:100F1400042A04D0102A02D0302A00D002E0194852
:100F2400026002E0012117480160C4F3C0021649BF
:100F3400086862F3C3000860C4F3800212490868B9
:100F440062F382000860C4F340020F49086862F348
:100F540041000860C4F300020B49086862F3000012
:100F64000860FFF71BFF09480360DDF800E001B0EB
:100F7400704700BFE0010000010000000000000015
:100F840008E000E00401084008A40040080108400B
:100DA00081B046F6FE17C0F2180700BF00BF7F1ED5
:0C0DB000FDD100BF00BF00BF01B07047C4
:1010000081B004490448016004490548016001B009
:10101000704700BF80BB000074000020000000008B
:041020007800002034
:080E9C0081B0FEE701B07047D0
:100EA40081B04EF68850CEF20000016841F4700122
:100EB400016000BF00BF00BF00BFF1EE100A40F4A4
:0A0EC4004000E1EE100A01B0704793
:100ED00081B0DFF81000DFF810100860D0F800D003
:100EE00000F004B800000B0008ED00E000BF01B006
:020EF000704749
:1019000000B5DFF814B0DFF814A0DFF814C0FFF75B
:1019100073FA00BD704700BF000000207400002073
:0419200024180B007C
:1019800000B5DFF810B0DFF810A0FFF717FA00BDC0
:0C199000704700BF000000208C00002009
:1010240023008000ADDEFF0000000000000000008F
:1010340000000000000000000000000000000000AC
:10104400000000000000000000000000000000009C
:10105400000000000000000000000000000000008C
:10106400000000000000000000000000000000007C
:10181400000000000000000000000000ADDEFF003A
:10182400005374617274696E672045667573652030
:1018340050726F6772616D6D696E670A00537461EF
:101844007274696E672045667573652050726F67A0
:1018540072616D6D696E67202D446F6E650A0000BC
:10186400005265566572696679206661696C6564C3
:021874000A0068
:1018760044697361626C696E6720415445204D6FFF
:0418860064650A008B
:0E188A00444F4E45204C454453204F4E0A001B
:101898008500000084000000FFFFFFFF000000003B
:1018A8000000000000000000000000000000000030
:1018B8000000000000000000000000000000000020
:1018C80000000000001000000010000000000000F0
:1018D8000000000000000000000000000000000000
:1018E80000000000000000000000000000000000F0
:0818F8000000000000000000E8
:00000001FF
